{
  "name": "AuctionFactory",
  "address": "0x316aC13cfC4CA8DE76660fbd8F470F558Ea6c5B3",
  "chainId": 11155111,
  "registryAddress": "0xeE00ba349b4CAe6eC1a0e48e0aF6c6Bc72Ff8b65",
  "abi": [
    {
      "inputs": [
        {
          "internalType": "address",
          "name": "_registry",
          "type": "address"
        }
      ],
      "stateMutability": "nonpayable",
      "type": "constructor"
    },
    {
      "anonymous": false,
      "inputs": [
        {
          "indexed": true,
          "internalType": "address",
          "name": "auctionAddress",
          "type": "address"
        },
        {
          "indexed": true,
          "internalType": "address",
          "name": "creator",
          "type": "address"
        },
        {
          "indexed": false,
          "internalType": "string",
          "name": "name",
          "type": "string"
        },
        {
          "indexed": false,
          "internalType": "uint256",
          "name": "endTime",
          "type": "uint256"
        }
      ],
      "name": "AuctionCreated",
      "type": "event"
    },
    {
      "inputs": [
        {
          "internalType": "uint256",
          "name": "biddingSeconds",
          "type": "uint256"
        },
        {
          "internalType": "string",
          "name": "name",
          "type": "string"
        },
        {
          "internalType": "string",
          "name": "description",
          "type": "string"
        },
        {
          "internalType": "string",
          "name": "imageHash",
          "type": "string"
        }
      ],
      "name": "createAuction",
      "outputs": [
        {
          "internalType": "address",
          "name": "auctionAddress",
          "type": "address"
        }
      ],
      "stateMutability": "nonpayable",
      "type": "function"
    },
    {
      "inputs": [],
      "name": "registry",
      "outputs": [
        {
          "internalType": "contract AuctionRegistry",
          "name": "",
          "type": "address"
        }
      ],
      "stateMutability": "view",
      "type": "function"
    }
  ],
  "bytecode": "0x60a060405234801561000f575f80fd5b506040516119ca3803806119ca83398101604081905261002e9161003f565b6001600160a01b031660805261006c565b5f6020828403121561004f575f80fd5b81516001600160a01b0381168114610065575f80fd5b9392505050565b6080516119416100895f395f8181606c015260ef01526119415ff3fe608060405234801561000f575f80fd5b5060043610610034575f3560e01c80630ec66484146100385780637b10399914610067575b5f80fd5b61004b610046366004610259565b61008e565b6040516001600160a01b03909116815260200160405180910390f35b61004b7f000000000000000000000000000000000000000000000000000000000000000081565b5f8085338460405161009f906101ae565b6100ab93929190610328565b604051809103905ff0801580156100c4573d5f803e3d5ffd5b5091508190505f6100d5874261035a565b60405163953e6db960e01b81529091506001600160a01b037f0000000000000000000000000000000000000000000000000000000000000000169063953e6db99061012a9086908a908a90879060040161037f565b5f604051808303815f87803b158015610141575f80fd5b505af1158015610153573d5f803e3d5ffd5b50505050336001600160a01b0316836001600160a01b03167f17c9f235ab6d059f1833cccb57568b04e9be9a532227f09c8c1d2ff7f5f58ed8888460405161019c9291906103c6565b60405180910390a35050949350505050565b61152480620003e883390190565b634e487b7160e01b5f52604160045260245ffd5b5f82601f8301126101df575f80fd5b813567ffffffffffffffff808211156101fa576101fa6101bc565b604051601f8301601f19908116603f01168101908282118183101715610222576102226101bc565b8160405283815286602085880101111561023a575f80fd5b836020870160208301375f602085830101528094505050505092915050565b5f805f806080858703121561026c575f80fd5b84359350602085013567ffffffffffffffff8082111561028a575f80fd5b610296888389016101d0565b945060408701359150808211156102ab575f80fd5b6102b7888389016101d0565b935060608701359150808211156102cc575f80fd5b506102d9878288016101d0565b91505092959194509250565b5f81518084525f5b81811015610309576020818501810151868301820152016102ed565b505f602082860101526020601f19601f83011685010191505092915050565b8381526001600160a01b03831660208201526060604082018190525f90610351908301846102e5565b95945050505050565b8082018082111561037957634e487b7160e01b5f52601160045260245ffd5b92915050565b6001600160a01b03851681526080602082018190525f906103a2908301866102e5565b82810360408401526103b481866102e5565b91505082606083015295945050505050565b604081525f6103d860408301856102e5565b9050826020830152939250505056fe60c060405234801562000010575f80fd5b50604051620015243803806200152483398101604081905262000033916200025c565b620001af620000d3604080516080810182525f808252602082018190529181018290526060810191909152506040805160808101825273687820221192c5b662b25367f70076a37bc79b6c815273848b0066793bcc60346da1f49049357399b8d5956020820152731364cbbf2cdf5032c47d8226a6f6fbd2afcdacac9181019190915273bc91f3dad1a5f19f8390c400196e58073b6a0bc4606082015290565b80517fed8d60e34876f751cc8b014c560745351147d9de11b9347c854e881b128ea60080546001600160a01b03199081166001600160a01b039384161790915560208301517fed8d60e34876f751cc8b014c560745351147d9de11b9347c854e881b128ea6018054831691841691909117905560408301517fed8d60e34876f751cc8b014c560745351147d9de11b9347c854e881b128ea6028054831691841691909117905560608301517fed8d60e34876f751cc8b014c560745351147d9de11b9347c854e881b128ea6038054909216921691909117905550565b7f5ea69329017273582817d320489fbd94f775580e90c092699ca6f3d12fdf7d0080546001600160a01b03191673a02cda4ca3a71d7c46997716f4283aa851c288121790556001600160a01b0382166080526200020d834262000353565b60a05260016200021e828262000403565b50506001600160a01b03165f908152600460205260409020805460ff1916600117905550620004cf565b634e487b7160e01b5f52604160045260245ffd5b5f805f606084860312156200026f575f80fd5b8351602080860151919450906001600160a01b038116811462000290575f80fd5b60408601519093506001600160401b0380821115620002ad575f80fd5b818701915087601f830112620002c1575f80fd5b815181811115620002d657620002d662000248565b604051601f8201601f19908116603f0116810190838211818310171562000301576200030162000248565b816040528281528a8684870101111562000319575f80fd5b5f93505b828410156200033c57848401860151818501870152928501926200031d565b5f8684830101528096505050505050509250925092565b808201808211156200037357634e487b7160e01b5f52601160045260245ffd5b92915050565b600181811c908216806200038e57607f821691505b602082108103620003ad57634e487b7160e01b5f52602260045260245ffd5b50919050565b601f821115620003fe57805f5260205f20601f840160051c81016020851015620003da5750805b601f840160051c820191505b81811015620003fb575f8155600101620003e6565b50505b505050565b81516001600160401b038111156200041f576200041f62000248565b620004378162000430845462000379565b84620003b3565b602080601f8311600181146200046d575f8415620004555750858301515b5f19600386901b1c1916600185901b178555620004c7565b5f85815260208120601f198616915b828110156200049d578886015182559484019460019091019084016200047c565b5085821015620004bb57878501515f19600388901b60f8161c191681555b505060018460011b0185555b505050505050565b60805160a051610ff4620005305f395f81816101860152818161025a01528181610280015281816102ca015261047501525f818161010b015281816105300152818161055d015281816105900152818161067801526108760152610ff45ff3fe608060405234801561000f575f80fd5b50600436106100cb575f3560e01c80634bb278f3116100885780636b2fd08b116100635780636b2fd08b146101fb57806386ce1271146102035780639b79d3311461020b578063cc996d1b1461021e575f80fd5b80634bb278f3146101cb57806351605d80146101d3578063615dabb8146101e8575f80fd5b80630718073c146100cf57806308551a531461010657806312fa6feb146101455780631865c57d146101515780633197cbb6146101815780634b00574d146101b6575b5f80fd5b6100f16100dd366004610d49565b60046020525f908152604090205460ff1681565b60405190151581526020015b60405180910390f35b61012d7f000000000000000000000000000000000000000000000000000000000000000081565b6040516001600160a01b0390911681526020016100fd565b5f546100f19060ff1681565b610159610247565b60408051941515855292151560208501529183015263ffffffff1660608201526080016100fd565b6101a87f000000000000000000000000000000000000000000000000000000000000000081565b6040519081526020016100fd565b6101c96101c4366004610d6f565b6102bb565b005b6101c9610473565b6101db6105e1565b6040516100fd9190610e27565b6101c96101f6366004610e39565b61066d565b6101a8610773565b6101a86107ef565b6101c9610219366004610d49565b61086b565b5f5461023290610100900463ffffffff1681565b60405163ffffffff90911681526020016100fd565b5f805460ff1681808215801561027c57507f000000000000000000000000000000000000000000000000000000000000000042105b93507f000000000000000000000000000000000000000000000000000000000000000091505f60019054906101000a900463ffffffff16905090919293565b5f5460ff161580156102ec57507f000000000000000000000000000000000000000000000000000000000000000042105b61032d5760405162461bcd60e51b815260206004820152600d60248201526c185d58dd1a5bdb88195b991959609a1b60448201526064015b60405180910390fd5b5f61036d8484848080601f0160208091040260200160405190810160405280939291908181526020018383808284375f9201919091525061093192505050565b90505f61037b600254151590565b156103c0575f61038d60025484610945565b905080915061039f8184600254610973565b6002556103b7816103af33610987565b600354610973565b600355506103ef565b6103db6103cc5f6109a2565b6103d660016109a2565b610945565b600283905590506103eb33610987565b6003555b6103fa6002546109b8565b506104066003546109b8565b50335f81815260046020526040808220805460ff19166001908117909155825463ffffffff61010080830482169093011690910264ffffffff0019909116178255517fe677a6b9a16a696674f50d2c98a1ce8c5cb51d6b48a0223412c512bbc93664d59190a25050505050565b7f00000000000000000000000000000000000000000000000000000000000000004210156104cd5760405162461bcd60e51b81526020600482015260076024820152661b9bdd081e595d60ca1b6044820152606401610324565b5f5460ff16156105095760405162461bcd60e51b8152602060048201526007602482015266616c726561647960c81b6044820152606401610324565b5f805460ff19166001179081905563ffffffff6101009091041615610583576105546002547f00000000000000000000000000000000000000000000000000000000000000006109c7565b506105816003547f00000000000000000000000000000000000000000000000000000000000000006109c7565b505b6040516001600160a01b037f00000000000000000000000000000000000000000000000000000000000000001681527f8e500951de09bcc6854e88c0810bafb819503505895751e657a92df6578d3d999060200160405180910390a1565b600180546105ee90610ea8565b80601f016020809104026020016040519081016040528092919081815260200182805461061a90610ea8565b80156106655780601f1061063c57610100808354040283529160200191610665565b820191905f5260205f20905b81548152906001019060200180831161064857829003601f168201915b505050505081565b336001600160a01b037f000000000000000000000000000000000000000000000000000000000000000016146106d25760405162461bcd60e51b815260206004820152600a6024820152693737ba1039b2b63632b960b11b6044820152606401610324565b5f5460ff166106f35760405162461bcd60e51b815260040161032490610ee0565b5f5b8181101561076e575f83838381811061071057610710610f07565b90506020020160208101906107259190610d49565b6001600160a01b0381165f908152600460205260409020805460ff1916600117905560025490915061075790826109c7565b50610764600354826109c7565b50506001016106f5565b505050565b5f805460ff166107955760405162461bcd60e51b815260040161032490610ee0565b335f9081526004602052604090205460ff166107e85760405162461bcd60e51b81526020600482015260126024820152713737903b34b2bb903832b936b4b9b9b4b7b760711b6044820152606401610324565b5060035490565b5f805460ff166108115760405162461bcd60e51b815260040161032490610ee0565b335f9081526004602052604090205460ff166108645760405162461bcd60e51b81526020600482015260126024820152713737903b34b2bb903832b936b4b9b9b4b7b760711b6044820152606401610324565b5060025490565b336001600160a01b037f000000000000000000000000000000000000000000000000000000000000000016146108d05760405162461bcd60e51b815260206004820152600a6024820152693737ba1039b2b63632b960b11b6044820152606401610324565b5f5460ff166108f15760405162461bcd60e51b815260040161032490610ee0565b6001600160a01b0381165f908152600460205260409020805460ff1916600117905560025461092090826109c7565b5061092d600354826109c7565b5050565b5f61093e838360056109d9565b9392505050565b5f82610957576109545f6109a2565b92505b81610968576109655f6109a2565b91505b61093e83835f610ae6565b5f61097f848484610b9b565b949350505050565b5f61099c826001600160a01b03166007610c31565b92915050565b5f61099c8267ffffffffffffffff166005610c31565b5f6109c38230610cd3565b5090565b5f6109d28383610cd3565b5090919050565b7fed8d60e34876f751cc8b014c560745351147d9de11b9347c854e881b128ea6015460405163196d0b9b60e01b81525f915f80516020610f9f833981519152916001600160a01b039091169063196d0b9b90610a3f908890339089908990600401610f3b565b6020604051808303815f875af1158015610a5b573d5f803e3d5ffd5b505050506040513d601f19601f82011682018060405250810190610a7f9190610f73565b8154604051630f8e573b60e21b8152600481018390523360248201529193506001600160a01b031690633e395cec906044015f604051808303815f87803b158015610ac8575f80fd5b505af1158015610ada573d5f803e3d5ffd5b50505050509392505050565b5f808215610af95750600160f81b610afc565b505f5b5f5f80516020610f9f8339815191526001810154604051637210768160e01b815260048101899052602481018890526001600160f81b0319851660448201529192506001600160a01b0316906372107681906064016020604051808303815f875af1158015610b6d573d5f803e3d5ffd5b505050506040513d601f19601f82011682018060405250810190610b919190610f73565b9695505050505050565b5f805f80516020610f9f8339815191526001810154604051637702dcff60e01b81526004810188905260248101879052604481018690529192506001600160a01b031690637702dcff906064016020604051808303815f875af1158015610c04573d5f803e3d5ffd5b505050506040513d601f19601f82011682018060405250810190610c289190610f73565b95945050505050565b7fed8d60e34876f751cc8b014c560745351147d9de11b9347c854e881b128ea60154604051639cd07acb60e01b81525f915f80516020610f9f833981519152916001600160a01b0390911690639cd07acb90610c939087908790600401610f8a565b6020604051808303815f875af1158015610caf573d5f803e3d5ffd5b505050506040513d601f19601f8201168201806040525081019061097f9190610f73565b5f5f80516020610f9f8339815191528054604051635ca4b5b160e11b8152600481018690526001600160a01b03858116602483015292935091169063b9496b62906044015f604051808303815f87803b158015610d2e575f80fd5b505af1158015610d40573d5f803e3d5ffd5b50505050505050565b5f60208284031215610d59575f80fd5b81356001600160a01b038116811461093e575f80fd5b5f805f60408486031215610d81575f80fd5b83359250602084013567ffffffffffffffff80821115610d9f575f80fd5b818601915086601f830112610db2575f80fd5b813581811115610dc0575f80fd5b876020828501011115610dd1575f80fd5b6020830194508093505050509250925092565b5f81518084525f5b81811015610e0857602081850181015186830182015201610dec565b505f602082860101526020601f19601f83011685010191505092915050565b602081525f61093e6020830184610de4565b5f8060208385031215610e4a575f80fd5b823567ffffffffffffffff80821115610e61575f80fd5b818501915085601f830112610e74575f80fd5b813581811115610e82575f80fd5b8660208260051b8501011115610e96575f80fd5b60209290920196919550909350505050565b600181811c90821680610ebc57607f821691505b602082108103610eda57634e487b7160e01b5f52602260045260245ffd5b50919050565b6020808252600d908201526c1b9bdd08199a5b985b1a5e9959609a1b604082015260600190565b634e487b7160e01b5f52603260045260245ffd5b60548110610f3757634e487b7160e01b5f52602160045260245ffd5b9052565b8481526001600160a01b03841660208201526080604082018190525f90610f6490830185610de4565b9050610c286060830184610f1b565b5f60208284031215610f83575f80fd5b5051919050565b8281526040810161093e6020830184610f1b56feed8d60e34876f751cc8b014c560745351147d9de11b9347c854e881b128ea600a264697066735822122044ea6cc41679f7ba63585a85c84dd7f2ab1fe987d9edb1129e377bac27b19ed164736f6c63430008180033a2646970667358221220fc1b6f5dca8e21aa4dd22984874d07ea77358b9f471f90ac6d6d4612210faf5464736f6c63430008180033",
  "deployTimestamp": 1757417642
}