{
  "name": "SealedAuction",
  "address": "0x3b73518CA9B039F6014C545614AfDc457f10d0a1",
  "chainId": 11155111,
  "abi": [
    {
      "inputs": [
        {
          "internalType": "uint256",
          "name": "biddingSeconds",
          "type": "uint256"
        },
        {
          "internalType": "address",
          "name": "_seller",
          "type": "address"
        }
      ],
      "stateMutability": "nonpayable",
      "type": "constructor"
    },
    {
      "anonymous": false,
      "inputs": [
        {
          "indexed": true,
          "internalType": "address",
          "name": "bidder",
          "type": "address"
        }
      ],
      "name": "BidPlaced",
      "type": "event"
    },
    {
      "anonymous": false,
      "inputs": [
        {
          "indexed": false,
          "internalType": "address",
          "name": "seller",
          "type": "address"
        }
      ],
      "name": "Finalized",
      "type": "event"
    },
    {
      "inputs": [],
      "name": "bids",
      "outputs": [
        {
          "internalType": "uint32",
          "name": "",
          "type": "uint32"
        }
      ],
      "stateMutability": "view",
      "type": "function"
    },
    {
      "inputs": [
        {
          "internalType": "address",
          "name": "",
          "type": "address"
        }
      ],
      "name": "canViewAfterEnd",
      "outputs": [
        {
          "internalType": "bool",
          "name": "",
          "type": "bool"
        }
      ],
      "stateMutability": "view",
      "type": "function"
    },
    {
      "inputs": [],
      "name": "endTime",
      "outputs": [
        {
          "internalType": "uint256",
          "name": "",
          "type": "uint256"
        }
      ],
      "stateMutability": "view",
      "type": "function"
    },
    {
      "inputs": [],
      "name": "ended",
      "outputs": [
        {
          "internalType": "bool",
          "name": "",
          "type": "bool"
        }
      ],
      "stateMutability": "view",
      "type": "function"
    },
    {
      "inputs": [],
      "name": "finalize",
      "outputs": [],
      "stateMutability": "nonpayable",
      "type": "function"
    },
    {
      "inputs": [],
      "name": "getState",
      "outputs": [
        {
          "internalType": "bool",
          "name": "isBidding",
          "type": "bool"
        },
        {
          "internalType": "bool",
          "name": "isEnded",
          "type": "bool"
        },
        {
          "internalType": "uint256",
          "name": "_endTime",
          "type": "uint256"
        },
        {
          "internalType": "uint32",
          "name": "_bids",
          "type": "uint32"
        }
      ],
      "stateMutability": "view",
      "type": "function"
    },
    {
      "inputs": [
        {
          "internalType": "address",
          "name": "viewer",
          "type": "address"
        }
      ],
      "name": "grantView",
      "outputs": [],
      "stateMutability": "nonpayable",
      "type": "function"
    },
    {
      "inputs": [
        {
          "internalType": "address[]",
          "name": "bidders",
          "type": "address[]"
        }
      ],
      "name": "grantViewToAllBidders",
      "outputs": [],
      "stateMutability": "nonpayable",
      "type": "function"
    },
    {
      "inputs": [],
      "name": "highestBidCipher",
      "outputs": [
        {
          "internalType": "euint64",
          "name": "",
          "type": "bytes32"
        }
      ],
      "stateMutability": "view",
      "type": "function"
    },
    {
      "inputs": [
        {
          "internalType": "externalEuint64",
          "name": "bidCt",
          "type": "bytes32"
        },
        {
          "internalType": "bytes",
          "name": "inputProof",
          "type": "bytes"
        }
      ],
      "name": "placeBid",
      "outputs": [],
      "stateMutability": "nonpayable",
      "type": "function"
    },
    {
      "inputs": [],
      "name": "seller",
      "outputs": [
        {
          "internalType": "address",
          "name": "",
          "type": "address"
        }
      ],
      "stateMutability": "view",
      "type": "function"
    },
    {
      "inputs": [],
      "name": "winnerCipher",
      "outputs": [
        {
          "internalType": "eaddress",
          "name": "",
          "type": "bytes32"
        }
      ],
      "stateMutability": "view",
      "type": "function"
    }
  ],
  "bytecode": "0x60c060405234801561000f575f80fd5b506040516111ca3803806111ca83398101604081905261002e9161022e565b6101a86100cc604080516080810182525f808252602082018190529181018290526060810191909152506040805160808101825273687820221192c5b662b25367f70076a37bc79b6c815273848b0066793bcc60346da1f49049357399b8d5956020820152731364cbbf2cdf5032c47d8226a6f6fbd2afcdacac9181019190915273bc91f3dad1a5f19f8390c400196e58073b6a0bc4606082015290565b80517fed8d60e34876f751cc8b014c560745351147d9de11b9347c854e881b128ea60080546001600160a01b03199081166001600160a01b039384161790915560208301517fed8d60e34876f751cc8b014c560745351147d9de11b9347c854e881b128ea6018054831691841691909117905560408301517fed8d60e34876f751cc8b014c560745351147d9de11b9347c854e881b128ea6028054831691841691909117905560608301517fed8d60e34876f751cc8b014c560745351147d9de11b9347c854e881b128ea6038054909216921691909117905550565b7f5ea69329017273582817d320489fbd94f775580e90c092699ca6f3d12fdf7d0080546001600160a01b03191673a02cda4ca3a71d7c46997716f4283aa851c288121790556001600160a01b0381166080526102048242610268565b60a0526001600160a01b03165f908152600360205260409020805460ff191660011790555061028d565b5f806040838503121561023f575f80fd5b825160208401519092506001600160a01b038116811461025d575f80fd5b809150509250929050565b8082018082111561028757634e487b7160e01b5f52601160045260245ffd5b92915050565b60805160a051610ede6102ec5f395f818161016c0152818161022b015281816102510152818161029b015261044601525f818160f1015281816105010152818161052e01528181610561015281816105bd01526107bc0152610ede5ff3fe608060405234801561000f575f80fd5b50600436106100b1575f3560e01c80634bb278f31161006e5780634bb278f3146101b1578063615dabb8146101b95780636b2fd08b146101cc57806386ce1271146101d45780639b79d331146101dc578063cc996d1b146101ef575f80fd5b80630718073c146100b557806308551a53146100ec57806312fa6feb1461012b5780631865c57d146101375780633197cbb6146101675780634b00574d1461019c575b5f80fd5b6100d76100c3366004610c90565b60036020525f908152604090205460ff1681565b60405190151581526020015b60405180910390f35b6101137f000000000000000000000000000000000000000000000000000000000000000081565b6040516001600160a01b0390911681526020016100e3565b5f546100d79060ff1681565b61013f610218565b60408051941515855292151560208501529183015263ffffffff1660608201526080016100e3565b61018e7f000000000000000000000000000000000000000000000000000000000000000081565b6040519081526020016100e3565b6101af6101aa366004610cb6565b61028c565b005b6101af610444565b6101af6101c7366004610d2b565b6105b2565b61018e6106b9565b61018e610735565b6101af6101ea366004610c90565b6107b1565b5f5461020390610100900463ffffffff1681565b60405163ffffffff90911681526020016100e3565b5f805460ff1681808215801561024d57507f000000000000000000000000000000000000000000000000000000000000000042105b93507f000000000000000000000000000000000000000000000000000000000000000091505f60019054906101000a900463ffffffff16905090919293565b5f5460ff161580156102bd57507f000000000000000000000000000000000000000000000000000000000000000042105b6102fe5760405162461bcd60e51b815260206004820152600d60248201526c185d58dd1a5bdb88195b991959609a1b60448201526064015b60405180910390fd5b5f61033e8484848080601f0160208091040260200160405190810160405280939291908181526020018383808284375f9201919091525061087892505050565b90505f61034c600154151590565b15610391575f61035e6001548461088c565b905080915061037081846001546108ba565b60015561038881610380336108ce565b6002546108ba565b600255506103c0565b6103ac61039d5f6108e9565b6103a760016108e9565b61088c565b600183905590506103bc336108ce565b6002555b6103cb6001546108ff565b506103d76002546108ff565b50335f81815260036020526040808220805460ff19166001908117909155825463ffffffff61010080830482169093011690910264ffffffff0019909116178255517fe677a6b9a16a696674f50d2c98a1ce8c5cb51d6b48a0223412c512bbc93664d59190a25050505050565b7f000000000000000000000000000000000000000000000000000000000000000042101561049e5760405162461bcd60e51b81526020600482015260076024820152661b9bdd081e595d60ca1b60448201526064016102f5565b5f5460ff16156104da5760405162461bcd60e51b8152602060048201526007602482015266616c726561647960c81b60448201526064016102f5565b5f805460ff19166001179081905563ffffffff6101009091041615610554576105256001547f000000000000000000000000000000000000000000000000000000000000000061090e565b506105526002547f000000000000000000000000000000000000000000000000000000000000000061090e565b505b6040516001600160a01b037f00000000000000000000000000000000000000000000000000000000000000001681527f8e500951de09bcc6854e88c0810bafb819503505895751e657a92df6578d3d999060200160405180910390a1565b336001600160a01b037f000000000000000000000000000000000000000000000000000000000000000016146106175760405162461bcd60e51b815260206004820152600a6024820152693737ba1039b2b63632b960b11b60448201526064016102f5565b5f5460ff166106385760405162461bcd60e51b81526004016102f590610d9a565b5f5b818110156106b4575f83838381811061065557610655610dc1565b905060200201602081019061066a9190610c90565b6001600160a01b0381165f908152600360205260409020805460ff191660019081179091555490915061069d908261090e565b506106aa6002548261090e565b505060010161063a565b505050565b5f805460ff166106db5760405162461bcd60e51b81526004016102f590610d9a565b335f9081526003602052604090205460ff1661072e5760405162461bcd60e51b81526020600482015260126024820152713737903b34b2bb903832b936b4b9b9b4b7b760711b60448201526064016102f5565b5060025490565b5f805460ff166107575760405162461bcd60e51b81526004016102f590610d9a565b335f9081526003602052604090205460ff166107aa5760405162461bcd60e51b81526020600482015260126024820152713737903b34b2bb903832b936b4b9b9b4b7b760711b60448201526064016102f5565b5060015490565b336001600160a01b037f000000000000000000000000000000000000000000000000000000000000000016146108165760405162461bcd60e51b815260206004820152600a6024820152693737ba1039b2b63632b960b11b60448201526064016102f5565b5f5460ff166108375760405162461bcd60e51b81526004016102f590610d9a565b6001600160a01b0381165f908152600360205260409020805460ff1916600190811790915554610867908261090e565b506108746002548261090e565b5050565b5f61088583836005610920565b9392505050565b5f8261089e5761089b5f6108e9565b92505b816108af576108ac5f6108e9565b91505b61088583835f610a2d565b5f6108c6848484610ae2565b949350505050565b5f6108e3826001600160a01b03166007610b78565b92915050565b5f6108e38267ffffffffffffffff166005610b78565b5f61090a8230610c1a565b5090565b5f6109198383610c1a565b5090919050565b7fed8d60e34876f751cc8b014c560745351147d9de11b9347c854e881b128ea6015460405163196d0b9b60e01b81525f915f80516020610e89833981519152916001600160a01b039091169063196d0b9b90610986908890339089908990600401610df5565b6020604051808303815f875af11580156109a2573d5f803e3d5ffd5b505050506040513d601f19601f820116820180604052508101906109c69190610e5d565b8154604051630f8e573b60e21b8152600481018390523360248201529193506001600160a01b031690633e395cec906044015f604051808303815f87803b158015610a0f575f80fd5b505af1158015610a21573d5f803e3d5ffd5b50505050509392505050565b5f808215610a405750600160f81b610a43565b505f5b5f5f80516020610e898339815191526001810154604051637210768160e01b815260048101899052602481018890526001600160f81b0319851660448201529192506001600160a01b0316906372107681906064016020604051808303815f875af1158015610ab4573d5f803e3d5ffd5b505050506040513d601f19601f82011682018060405250810190610ad89190610e5d565b9695505050505050565b5f805f80516020610e898339815191526001810154604051637702dcff60e01b81526004810188905260248101879052604481018690529192506001600160a01b031690637702dcff906064016020604051808303815f875af1158015610b4b573d5f803e3d5ffd5b505050506040513d601f19601f82011682018060405250810190610b6f9190610e5d565b95945050505050565b7fed8d60e34876f751cc8b014c560745351147d9de11b9347c854e881b128ea60154604051639cd07acb60e01b81525f915f80516020610e89833981519152916001600160a01b0390911690639cd07acb90610bda9087908790600401610e74565b6020604051808303815f875af1158015610bf6573d5f803e3d5ffd5b505050506040513d601f19601f820116820180604052508101906108c69190610e5d565b5f5f80516020610e898339815191528054604051635ca4b5b160e11b8152600481018690526001600160a01b03858116602483015292935091169063b9496b62906044015f604051808303815f87803b158015610c75575f80fd5b505af1158015610c87573d5f803e3d5ffd5b50505050505050565b5f60208284031215610ca0575f80fd5b81356001600160a01b0381168114610885575f80fd5b5f805f60408486031215610cc8575f80fd5b83359250602084013567ffffffffffffffff80821115610ce6575f80fd5b818601915086601f830112610cf9575f80fd5b813581811115610d07575f80fd5b876020828501011115610d18575f80fd5b6020830194508093505050509250925092565b5f8060208385031215610d3c575f80fd5b823567ffffffffffffffff80821115610d53575f80fd5b818501915085601f830112610d66575f80fd5b813581811115610d74575f80fd5b8660208260051b8501011115610d88575f80fd5b60209290920196919550909350505050565b6020808252600d908201526c1b9bdd08199a5b985b1a5e9959609a1b604082015260600190565b634e487b7160e01b5f52603260045260245ffd5b60548110610df157634e487b7160e01b5f52602160045260245ffd5b9052565b8481525f602060018060a01b03861660208401526080604084015284518060808501525f5b81811015610e365786810183015185820160a001528201610e1a565b505f60a0828601015260a0601f19601f83011685010192505050610b6f6060830184610dd5565b5f60208284031215610e6d575f80fd5b5051919050565b828152604081016108856020830184610dd556feed8d60e34876f751cc8b014c560745351147d9de11b9347c854e881b128ea600a264697066735822122038324dc2b2535afc1c1d6e9bbba90ff0741515f1c09d91b33ffb7fcbb32395af64736f6c63430008180033",
  "deployTimestamp": 1757393943
}