{
  "name": "SealedAuction",
  "address": "0x7a535111E3AF81bB514CC1E3dC8e46bB03E85FA3",
  "chainId": 11155111,
  "abi": [
    {
      "inputs": [
        {
          "internalType": "uint256",
          "name": "biddingSeconds",
          "type": "uint256"
        }
      ],
      "stateMutability": "nonpayable",
      "type": "constructor"
    },
    {
      "anonymous": false,
      "inputs": [
        {
          "indexed": true,
          "internalType": "address",
          "name": "bidder",
          "type": "address"
        }
      ],
      "name": "BidPlaced",
      "type": "event"
    },
    {
      "anonymous": false,
      "inputs": [
        {
          "indexed": false,
          "internalType": "address",
          "name": "seller",
          "type": "address"
        }
      ],
      "name": "Finalized",
      "type": "event"
    },
    {
      "inputs": [],
      "name": "bids",
      "outputs": [
        {
          "internalType": "uint32",
          "name": "",
          "type": "uint32"
        }
      ],
      "stateMutability": "view",
      "type": "function"
    },
    {
      "inputs": [
        {
          "internalType": "address",
          "name": "",
          "type": "address"
        }
      ],
      "name": "canViewAfterEnd",
      "outputs": [
        {
          "internalType": "bool",
          "name": "",
          "type": "bool"
        }
      ],
      "stateMutability": "view",
      "type": "function"
    },
    {
      "inputs": [],
      "name": "endTime",
      "outputs": [
        {
          "internalType": "uint256",
          "name": "",
          "type": "uint256"
        }
      ],
      "stateMutability": "view",
      "type": "function"
    },
    {
      "inputs": [],
      "name": "ended",
      "outputs": [
        {
          "internalType": "bool",
          "name": "",
          "type": "bool"
        }
      ],
      "stateMutability": "view",
      "type": "function"
    },
    {
      "inputs": [],
      "name": "finalize",
      "outputs": [],
      "stateMutability": "nonpayable",
      "type": "function"
    },
    {
      "inputs": [],
      "name": "getState",
      "outputs": [
        {
          "internalType": "bool",
          "name": "isBidding",
          "type": "bool"
        },
        {
          "internalType": "bool",
          "name": "isEnded",
          "type": "bool"
        },
        {
          "internalType": "uint256",
          "name": "_endTime",
          "type": "uint256"
        },
        {
          "internalType": "uint32",
          "name": "_bids",
          "type": "uint32"
        }
      ],
      "stateMutability": "view",
      "type": "function"
    },
    {
      "inputs": [
        {
          "internalType": "address",
          "name": "viewer",
          "type": "address"
        }
      ],
      "name": "grantView",
      "outputs": [],
      "stateMutability": "nonpayable",
      "type": "function"
    },
    {
      "inputs": [],
      "name": "highestBidCipher",
      "outputs": [
        {
          "internalType": "euint64",
          "name": "",
          "type": "bytes32"
        }
      ],
      "stateMutability": "view",
      "type": "function"
    },
    {
      "inputs": [
        {
          "internalType": "externalEuint64",
          "name": "bidCt",
          "type": "bytes32"
        },
        {
          "internalType": "bytes",
          "name": "inputProof",
          "type": "bytes"
        }
      ],
      "name": "placeBid",
      "outputs": [],
      "stateMutability": "nonpayable",
      "type": "function"
    },
    {
      "inputs": [],
      "name": "seller",
      "outputs": [
        {
          "internalType": "address",
          "name": "",
          "type": "address"
        }
      ],
      "stateMutability": "view",
      "type": "function"
    },
    {
      "inputs": [],
      "name": "winnerCipher",
      "outputs": [
        {
          "internalType": "eaddress",
          "name": "",
          "type": "bytes32"
        }
      ],
      "stateMutability": "view",
      "type": "function"
    }
  ],
  "bytecode": "0x60c060405234801561000f575f80fd5b50604051610fe7380380610fe783398101604081905261002e9161021d565b6101a86100cc604080516080810182525f808252602082018190529181018290526060810191909152506040805160808101825273687820221192c5b662b25367f70076a37bc79b6c815273848b0066793bcc60346da1f49049357399b8d5956020820152731364cbbf2cdf5032c47d8226a6f6fbd2afcdacac9181019190915273bc91f3dad1a5f19f8390c400196e58073b6a0bc4606082015290565b80517fed8d60e34876f751cc8b014c560745351147d9de11b9347c854e881b128ea60080546001600160a01b03199081166001600160a01b039384161790915560208301517fed8d60e34876f751cc8b014c560745351147d9de11b9347c854e881b128ea6018054831691841691909117905560408301517fed8d60e34876f751cc8b014c560745351147d9de11b9347c854e881b128ea6028054831691841691909117905560608301517fed8d60e34876f751cc8b014c560745351147d9de11b9347c854e881b128ea6038054909216921691909117905550565b7f5ea69329017273582817d320489fbd94f775580e90c092699ca6f3d12fdf7d0080546001600160a01b03191673a02cda4ca3a71d7c46997716f4283aa851c28812179055336080526101fb8142610234565b60a05250335f908152600360205260409020805460ff19166001179055610259565b5f6020828403121561022d575f80fd5b5051919050565b8082018082111561025357634e487b7160e01b5f52601160045260245ffd5b92915050565b60805160a051610d366102b15f395f81816101610152818161020d015281816102330152818161027d015261042801525f818160e6015281816104e3015281816105100152818161054301526106970152610d365ff3fe608060405234801561000f575f80fd5b50600436106100a6575f3560e01c80634b00574d1161006e5780634b00574d146101915780634bb278f3146101a65780636b2fd08b146101ae57806386ce1271146101b65780639b79d331146101be578063cc996d1b146101d1575f80fd5b80630718073c146100aa57806308551a53146100e157806312fa6feb146101205780631865c57d1461012c5780633197cbb61461015c575b5f80fd5b6100cc6100b8366004610b6b565b60036020525f908152604090205460ff1681565b60405190151581526020015b60405180910390f35b6101087f000000000000000000000000000000000000000000000000000000000000000081565b6040516001600160a01b0390911681526020016100d8565b5f546100cc9060ff1681565b6101346101fa565b60408051941515855292151560208501529183015263ffffffff1660608201526080016100d8565b6101837f000000000000000000000000000000000000000000000000000000000000000081565b6040519081526020016100d8565b6101a461019f366004610b91565b61026e565b005b6101a4610426565b610183610594565b610183610610565b6101a46101cc366004610b6b565b61068c565b5f546101e590610100900463ffffffff1681565b60405163ffffffff90911681526020016100d8565b5f805460ff1681808215801561022f57507f000000000000000000000000000000000000000000000000000000000000000042105b93507f000000000000000000000000000000000000000000000000000000000000000091505f60019054906101000a900463ffffffff16905090919293565b5f5460ff1615801561029f57507f000000000000000000000000000000000000000000000000000000000000000042105b6102e05760405162461bcd60e51b815260206004820152600d60248201526c185d58dd1a5bdb88195b991959609a1b60448201526064015b60405180910390fd5b5f6103208484848080601f0160208091040260200160405190810160405280939291908181526020018383808284375f9201919091525061075392505050565b90505f61032e600154151590565b15610373575f61034060015484610767565b90508091506103528184600154610795565b60015561036a81610362336107a9565b600254610795565b600255506103a2565b61038e61037f5f6107c4565b61038960016107c4565b610767565b6001839055905061039e336107a9565b6002555b6103ad6001546107da565b506103b96002546107da565b50335f81815260036020526040808220805460ff19166001908117909155825463ffffffff61010080830482169093011690910264ffffffff0019909116178255517fe677a6b9a16a696674f50d2c98a1ce8c5cb51d6b48a0223412c512bbc93664d59190a25050505050565b7f00000000000000000000000000000000000000000000000000000000000000004210156104805760405162461bcd60e51b81526020600482015260076024820152661b9bdd081e595d60ca1b60448201526064016102d7565b5f5460ff16156104bc5760405162461bcd60e51b8152602060048201526007602482015266616c726561647960c81b60448201526064016102d7565b5f805460ff19166001179081905563ffffffff6101009091041615610536576105076001547f00000000000000000000000000000000000000000000000000000000000000006107e9565b506105346002547f00000000000000000000000000000000000000000000000000000000000000006107e9565b505b6040516001600160a01b037f00000000000000000000000000000000000000000000000000000000000000001681527f8e500951de09bcc6854e88c0810bafb819503505895751e657a92df6578d3d999060200160405180910390a1565b5f805460ff166105b65760405162461bcd60e51b81526004016102d790610c06565b335f9081526003602052604090205460ff166106095760405162461bcd60e51b81526020600482015260126024820152713737903b34b2bb903832b936b4b9b9b4b7b760711b60448201526064016102d7565b5060025490565b5f805460ff166106325760405162461bcd60e51b81526004016102d790610c06565b335f9081526003602052604090205460ff166106855760405162461bcd60e51b81526020600482015260126024820152713737903b34b2bb903832b936b4b9b9b4b7b760711b60448201526064016102d7565b5060015490565b336001600160a01b037f000000000000000000000000000000000000000000000000000000000000000016146106f15760405162461bcd60e51b815260206004820152600a6024820152693737ba1039b2b63632b960b11b60448201526064016102d7565b5f5460ff166107125760405162461bcd60e51b81526004016102d790610c06565b6001600160a01b0381165f908152600360205260409020805460ff191660019081179091555461074290826107e9565b5061074f600254826107e9565b5050565b5f610760838360056107fb565b9392505050565b5f82610779576107765f6107c4565b92505b8161078a576107875f6107c4565b91505b61076083835f610908565b5f6107a18484846109bd565b949350505050565b5f6107be826001600160a01b03166007610a53565b92915050565b5f6107be8267ffffffffffffffff166005610a53565b5f6107e58230610af5565b5090565b5f6107f48383610af5565b5090919050565b7fed8d60e34876f751cc8b014c560745351147d9de11b9347c854e881b128ea6015460405163196d0b9b60e01b81525f915f80516020610ce1833981519152916001600160a01b039091169063196d0b9b90610861908890339089908990600401610c4d565b6020604051808303815f875af115801561087d573d5f803e3d5ffd5b505050506040513d601f19601f820116820180604052508101906108a19190610cb5565b8154604051630f8e573b60e21b8152600481018390523360248201529193506001600160a01b031690633e395cec906044015f604051808303815f87803b1580156108ea575f80fd5b505af11580156108fc573d5f803e3d5ffd5b50505050509392505050565b5f80821561091b5750600160f81b61091e565b505f5b5f5f80516020610ce18339815191526001810154604051637210768160e01b815260048101899052602481018890526001600160f81b0319851660448201529192506001600160a01b0316906372107681906064016020604051808303815f875af115801561098f573d5f803e3d5ffd5b505050506040513d601f19601f820116820180604052508101906109b39190610cb5565b9695505050505050565b5f805f80516020610ce18339815191526001810154604051637702dcff60e01b81526004810188905260248101879052604481018690529192506001600160a01b031690637702dcff906064016020604051808303815f875af1158015610a26573d5f803e3d5ffd5b505050506040513d601f19601f82011682018060405250810190610a4a9190610cb5565b95945050505050565b7fed8d60e34876f751cc8b014c560745351147d9de11b9347c854e881b128ea60154604051639cd07acb60e01b81525f915f80516020610ce1833981519152916001600160a01b0390911690639cd07acb90610ab59087908790600401610ccc565b6020604051808303815f875af1158015610ad1573d5f803e3d5ffd5b505050506040513d601f19601f820116820180604052508101906107a19190610cb5565b5f5f80516020610ce18339815191528054604051635ca4b5b160e11b8152600481018690526001600160a01b03858116602483015292935091169063b9496b62906044015f604051808303815f87803b158015610b50575f80fd5b505af1158015610b62573d5f803e3d5ffd5b50505050505050565b5f60208284031215610b7b575f80fd5b81356001600160a01b0381168114610760575f80fd5b5f805f60408486031215610ba3575f80fd5b83359250602084013567ffffffffffffffff80821115610bc1575f80fd5b818601915086601f830112610bd4575f80fd5b813581811115610be2575f80fd5b876020828501011115610bf3575f80fd5b6020830194508093505050509250925092565b6020808252600d908201526c1b9bdd08199a5b985b1a5e9959609a1b604082015260600190565b60548110610c4957634e487b7160e01b5f52602160045260245ffd5b9052565b8481525f602060018060a01b03861660208401526080604084015284518060808501525f5b81811015610c8e5786810183015185820160a001528201610c72565b505f60a0828601015260a0601f19601f83011685010192505050610a4a6060830184610c2d565b5f60208284031215610cc5575f80fd5b5051919050565b828152604081016107606020830184610c2d56feed8d60e34876f751cc8b014c560745351147d9de11b9347c854e881b128ea600a2646970667358221220df88af202d486ce9bfb8c21e440c16cb3878bc7403edf916d6326b3d352a3c6364736f6c63430008180033",
  "deployTimestamp": 1757383646
}